:10000000CBC00000E4C00000E2C00000E0C000007F
:10001000DEC00000DCC00000DAC00000D8C0000074
:10002000D6C00000D4C00000FFC200005CC30000C6
:10003000CEC00000CCC00000CAC00000C8C0000094
:10004000C6C00000C4C00000C2C00000C0C00000A4
:10005000BEC000003AC10000BAC00000B8C0000035
:10006000B6C00000B4C00000B2C00000B0C00000C4
:10007000AEC00000ACC00000AAC00000A8C00000D4
:10008000A6C00000A4C00000A2C00000A0C00000E4
:100090009EC000009CC000009AC0000098C00000F4
:1000A00096C0000094C0000092C000000001000053
:1000B000E3001200020000F50022002200001701F8
:1000C0003F00210000070109000300005601040160
:1000D0000309045A012A02030904860110000001E1
:1000E000C106001201000200000020C0167C0400BE
:1000F000010102000109022200010100C0320904CD
:1001000000000103010100092111010001223F004B
:100110000705830308000105010906A10175019582
:1001200008050719E029E7150025018102950175E9
:1001300008810395057501050819012905910295A6
:1001400001750391039506750815002568050719C3
:100150000029688100C0040309042A0347006500E0
:1001600065006B004800610063006B002F004400D5
:10017000650073006B00740068006F007200690016
:1001800074007900000010035000680061006E00E8
:1001900074006F006D00000011241FBECFEFDAE085
:1001A000DEBFCDBF12E0A0E0B1E0E0EDF9E002C0BB
:1001B00005900D92A435B107D9F713E0A4E5B2E09C
:1001C00001C01D92AC32B107E1F74BD1FFC318CF8C
:1001D000CF93DF93EBE4F2E0C6E5D2E0A191AF3F2D
:1001E00029F0B0E0AA59BE4F8C9101C080E08993FC
:1001F00082E0E135F80791F780915402809355022F
:10020000D9D1DF91CF910895282F30E0F901EA5339
:10021000FD4F91E09083F901E05AFD4F1082F90102
:10022000E050FF4F90819923B9F490914F02909341
:10023000500290914E0290934F0290914D029093F4
:100240004E0290914C0290934D0290914B029093EC
:100250004C0280934B0209C02A593E4F80915402B0
:10026000F9019081892B80935402B2CF282F30E07E
:10027000F901EA53FD4F1082F901E05AFD4F108257
:10028000F901E050FF4F9081992359F02A593E4FD0
:10029000F9019081909580915402892380935402B2
:1002A00013C0EBE4F2E090E02191281759F09F5F32
:1002B0009630D1F707C0E92FF0E0E55BFD4F818173
:1002C00080839F5F9630B8F383CF1F920F920FB653
:1002D0000F9211242F933F934F935F936F937F93CC
:1002E0008F939F93AF93BF93CF93DF93EF93FF933E
:1002F000C0E0D0E0FE01E05AFD4F8081813011F472
:100300008C2FB4DFFE01E05AFD4F808186958083FB
:100310002196C636D10571F7FF91EF91DF91CF910C
:10032000BF91AF919F918F917F916F915F914F910D
:100330003F912F910F900FBE0F901F90189595B180
:100340008295880F807C9F73982B95B994B19F7389
:10035000982B94B90895CF93DF93ECECF1E0C0EFC4
:10036000D1E068ED71E0819191913991432F4095F1
:10037000DC012C9124232C93DB018D919D91BD01F7
:10038000DC012C91232B2C93B1E0E83DFB0759F7BE
:10039000E6EFF1E0CAE3D2E048E152E081919191C9
:1003A0003991DC012C91232B2C93DA018D919D91B5
:1003B000AD01DC012C91232B2C93B2E0E831FB073B
:1003C00069F7E6ECF2E080E090E01192DC01A05ADF
:1003D000BD4F1C92019686369105B9F7DF91CF91FA
:1003E0000895E0E8F0E0808189628083E1E8F0E050
:1003F00080818C6080838AEF90E090938B00809363
:100400008A0090938D0080938C0084B18F7384B99F
:1004100085B18F7385B9089584B5826084BD85B533
:10042000846085BDEEE6F0E080818260808380E2BA
:1004300087BD089580E88093610010926100A0D08C
:100440008ADFCFDFE9DFB3D08823E9F38FEF93EDC5
:10045000A0E381509040A040E1F700C000007894F4
:1004600008959F92AF92BF92CF92DF92EF92FF9248
:100470000F931F93DF93CF93CDB7DEB764970FB67B
:10048000F894DEBF0FBECDBFD5DF19821A821B8262
:100490001C821D821E8290E040E07E010894E11CD7
:1004A000F11C50E8D52E5EC0042F10E0F801EE0FCD
:1004B000FF1FE85EFD4F0190F081E02DD801A65CA2
:1004C000BD4F2C91209580818223808385E08A9581
:1004D000F1F7000053B150955F73F701E00FF11F82
:1004E000A080A52651F1B92E26E0922ECC24C394EB
:1004F0008C2D8A21E9F08C2D85232B2D30E0A1F065
:10050000F901EA53FD4F8081882349F48B2D4A8BF2
:100510005C8B9B8B79DE4A895C899B8909C0205A58
:100520003D4FF901108204C0205A3D4FF901D0829D
:10053000B3949A9411F0CC0CDBCF9A5FF701E00FE3
:10054000F11F5083F801EE0FFF1FE85EFD4F019091
:10055000F081E02DD801A65CBD4F80812C91822BCB
:1005600080834F5F413108F49FCF80915C02E7DECA
:1005700090E040E099CF8091E80080FFFCCF0895A3
:1005800081E08093D70080EA8093D80082E189BD22
:1005900009B400FEFDCF80E98093D8001092E000FE
:1005A00010925D028CE08093E2007894089580912F
:1005B0005D02089580915D02882391F18FB7F894D0
:1005C00093E09093E9009091E4009E5C23E03091E9
:1005D000E80035FD0EC08FBF80915D02882301F1D8
:1005E0008091E4008917F1F08FB7F8942093E90027
:1005F000EECF909155029093F1001092F100E6E554
:10060000F2E091919093F10092E0EC35F907C9F78F
:100610009AE39093E80010925E028FBF80E0089505
:100620008FEF08958FEF08951F920F920FB60F92DC
:1006300011242F938F939F93EF93FF938091E10069
:100640001092E10083FF0FC01092E90091E09093B7
:10065000EB001092EC0092E29093ED0098E0909302
:10066000F00010925D0282FF34C080915D02882309
:1006700081F120915202222361F180915F028F5F0C
:1006800080935F0290E083709070009711F583E093
:100690008093E9008091E80085FF1BC080915E0295
:1006A0008F5F80935E028217A1F410925E028091A8
:1006B00055028093F1001092F100E6E5F2E081919D
:1006C0008093F10082E0EC35F807C9F78AE3809364
:1006D000E800FF91EF919F918F912F910F900FBEA6
:1006E0000F901F9018951F920F920FB60F92112422
:1006F000EF92FF920F931F932F933F934F935F932C
:100700006F937F938F939F93AF93BF93EF93FF93D9
:10071000DF93CF930F92CDB7DEB71092E9008091AF
:10072000E80083FF38C12091F1003091F100E090A2
:10073000F100FF244091F100942F80E0E82AF92A8B
:100740000091F10010E04091F100942F80E0082B1F
:10075000192B6091F100A091F10082EF8093E800E5
:10076000363009F059C083EB90E09C0125503040B1
:10077000FC013797459154914E155F05F9F4F90145
:100780004591549140175107C9F42E5F3F4FF9012D
:10079000859194912E5F3F4FF9012491462F50E0AF
:1007A0007A2F60E0462B572B4F3F510519F010F080
:1007B0004FEF50E0421750F4242F08C00796295FEE
:1007C0003F4FF0E0843E9F0799F6E5C0AEEF4091C1
:1007D000E80050E0BA016570707061157105B9F3F9
:1007E00042FDDCC0322F213208F030E2AC01632F31
:1007F00007C0FA014F5F5F4FE491E093F100615051
:100800006623B9F7830F911D231BA093E8002223D1
:10081000F1F63032E1F2C2C0353049F48EEF809308
:10082000E800A9DE8E2D80688093E300B7C03930E0
:1008300031F5222309F069C0E0925D028EEF8093CA
:10084000E80041E08DED90E04093E900FC01019665
:10085000E491E093EB00EE2369F09C012F5F3F4FA2
:10086000FC0184918093EC00C9010196F901249167
:100870002093ED004F5F453039F78EE141C03830AD
:1008800039F4203809F041C076DE80915D0261C004
:100890003323A9F429836FDE2981223851F4009390
:1008A000E9009091EB0081E095FF80E01092E90073
:1008B00001C080E08093F1001092F10068C03130F7
:1008C00011F0333011F5223001F5E114F104E9F4AF
:1008D000402F4F77842F81508430B8F48EEF80936F
:1008E000E8004093E900333009F455C089E1809372
:1008F000EB0081E090E002C0880F991F4A95E2F773
:100900008093EA001092EA0049C00115110509F030
:1009100042C0213A09F5313089F42DDE809155022B
:100920008093F1001092F100E6E5F2E0819180936E
:10093000F10042E0EC35F407C9F729C0323021F468
:100940001ADE8091520205C0333029F514DE809101
:1009500053028093F1001BC02132E9F4393061F475
:100960008091E80082FFFCCF8091F10080935C02CF
:100970008BEF8093E8000BC03A3029F4F0925202DA
:1009800010925E0204C03B3031F4E09253028EEFCD
:100990008093E80003C081E28093EB000F90CF9139
:1009A000DF91FF91EF91BF91AF919F918F917F91D7
:1009B0006F915F914F913F912F911F910F91FF90F8
:1009C000EF900F900FBE0F901F901895F894FFCFE7
:1009D0000101000000000100000000000100000013
:1009E0000000000000000000000000000000000007
:1009F00000000000000000000000000000000000F7
:100A000000000000000000000000000001000000E5
:100A100000000100000000000000000000000101D3
:100A200000000000000000000000000000000000C6
:100A30000000000000000102392B1E290864041484
:100A40001F35041D161A203A001B0708213B00061B
:100A50000915223C00190A17233D00050B1C243EF2
:100A60002C110D18253F00100E0C264000360F12D9
:100A70002741403733132D428038342F2E436500F1
:100A800031300044102028312A455000004C49469E
:100A90005152004D4A474F00004E4B48240024005D
:100AA0002400240024002400250025002500250022
:100AB000250025002300230023002300230023001A
:100AC0000102040810202A00270027002A002A001B
:100AD0002D003000300030003000300030002A009F
:100AE0002A002A002A002A002B00280028002B00B8
:100AF0002B002E0031003100310031003100310077
:100B00002B002B002B002B002B00208040100140DD
:100B10000102102040808040020408FFFFFFFFFF19
:040B2000FFFF7D0155
:00000001FF
